:100000000C9424010C9441010C9441010C94410185
:100010000C9441010C9441010C9441010C94410158
:100020000C9441010C9441010C9441010C945C0529
:100030000C9441010C9441010C9441010C94410138
:100040000C9441010C9441010C9441010C94410128
:100050000C9441010C9441010C9441010C94410118
:100060000C9441010C944101000000000000005F6D
:1000700000000007000700147F147F14242A7F2A41
:10008000122313086462364955225000050300000C
:10009000001C2241000041221C0014083E081408E4
:1000A000083E0808005030000008080808080060F2
:1000B00060000020100804023E5149453E00427F86
:1000C000400042615149462141454B311814127F8D
:1000D0001027454545393C4A494930017109050316
:1000E0003649494936064949291E0036360000007E
:1000F0005636000008142241001414141414004150
:100100002214080201510906324979413E7E11113B
:10011000117E7F494949363E414141227F4141227A
:100120001C7F494949417F090909013E4149497AF2
:100130007F0808087F00417F41002040413F017F48
:10014000081422417F404040407F020C027F7F0420
:1001500008107F3E4141413E7F090909063E415159
:10016000215E7F09192946464949493101017F012C
:10017000013F4040403F1F2040201F3F4038403F4C
:100180006314081463070870080761514945430068
:100190007F41410002040810200041417F00040219
:1001A0000102044040404040000102040020545439
:1001B00054787F48444438384444442038444448C0
:1001C0007F3854545418087E0901020C5252523E92
:1001D0007F0804047800447D40002040443D007FB7
:1001E0001028440000417F40007C041804787C08FB
:1001F00004047838444444387C1414140808141453
:10020000187C7C080404084854545420043F44409B
:10021000203C4040207C1C2040201C3C4030403C86
:1002200044281028440C5050503C4464544C440022
:100230000836410000007F00000041360800100829
:10024000081008000000000011241FBECFEFD8E006
:10025000DEBFCDBF11E0A0E0B1E0EEE6FCE102C000
:1002600005900D92AC38B107D9F723E0ACE8B1E0C6
:1002700001C01D92A63DB207E1F70E9411090C943E
:10028000350E0C9400006FE071E081E00E947B0766
:1002900060E380E00E949E0740E050E062E08CE175
:1002A00091E00E94850708956FE071E081E00E946F
:1002B0007B0762E181E00E949E0740E050E062E03F
:1002C0008CE191E00E94850708956AE071E081E089
:1002D0000E947B0760E381E00E949E0740E050E0BF
:1002E00062E08CE191E00E94850708952FE243E5EA
:1002F0006FE280E00E94B80708950E94F60560E072
:1003000083E00E949E0740E050E061E08EE191E0D2
:100310000E9485076CE085E00E949E0740E050E067
:1003200061E08CE291E00E9485070E94430168E150
:1003300084E10E949E0740E050E061E089E391E0A3
:100340000E94850764E284E10E949E0740E050E03D
:1003500061E082E491E00E9485070E9476010E949C
:10036000A30708950F931F93CF93DF93CDB7DEB705
:100370006E970FB6F894DEBF0FBECDBF60E080E091
:100380000E949E0780919201909193019F938F9379
:100390008BE491E09F938F938E010F5F1F4F1F930C
:1003A0000F930E944B0B40E050E061E0C8010E94B7
:1003B000850729E043E569E080E00E94B8070F90D7
:1003C0000F900F900F900F900F906E960FB6F894BD
:1003D000DEBF0FBECDBFDF91CF911F910F9108956A
:1003E000CF93DF93EC0118161906A4F085E490E092
:1003F000909319018093180120918C0130918D0107
:1004000081E090E0232B11F080E090E090938D014B
:1004100080938C0165E071E081E00E947B0760E2DF
:100420008C2F0E949E0740E050E062E08CE191E05A
:100430000E948507DF91CF910895CF93DF93EC0160
:1004400018161906A4F085E490E090931B018093A0
:100450001A0120918E0130918F0181E090E0232BD1
:1004600011F080E090E090938F0180938E0160E026
:1004700071E081E00E947B0760E28C2F0E949E0762
:1004800041E050E061E08CE191E00E948507DF915E
:10049000CF9108950F931F93CF93DF93CDB7DEB71E
:1004A0006E970FB6F894DEBF0FBECDBF0E94F60563
:1004B00060E083E00E949E0740E050E061E085E557
:1004C00091E00E9485076CE081E00E949E07809188
:1004D0009201909193019F938F938BE491E09F936E
:1004E0008F938E010F5F1F4F1F930F930E944B0B33
:1004F00040E050E061E0C8010E9485070E9476015B
:100500000E94A3072FEF8FE493EC2150804090408E
:10051000E1F700C000000E94F60560E083E00E9461
:100520009E0740E050E061E080E691E00E94850790
:1005300029E043E569E080E00E94B8076CE081E0D3
:100540000E949E0780919201909193010F900F90CD
:100550000F900F900F900F9040976CF56CE081E03A
:100560000E949E0740E050E061E08DE691E00E942D
:10057000850768E181E00E949E0740E050E061E06D
:1005800084E791E00E94850764E281E00E949E0773
:1005900040E050E061E08CE791E00E9485070E9416
:1005A000A3072FEF83E294EF215080409040E1F7C2
:1005B00000C00000AFC080919201909193014197DB
:1005C0009CF1809192019091930180976CF56CE081
:1005D00081E00E949E0740E050E061E08DE691E0FE
:1005E0000E94850768E181E00E949E0740E050E09C
:1005F00061E084E791E00E94850764E281E00E9467
:100600009E0780919201909193019F938F9384E82C
:1006100091E09F938F931F930F930E944B0B40E0A9
:1006200050E061E0C80163C0809192019091930114
:1006300081974CF1809192019091930184359105BD
:1006400014F56CE081E00E949E0740E050E061E01C
:100650008DE691E00E94850768E181E00E949E0797
:1006600080919201909193019F938F9384E891E000
:100670009F938F931F930F930E944B0B40E050E08A
:1006800061E0C80129C08091920190919301853564
:1006900091050CF43FC06CE081E00E949E078091C0
:1006A0009201909193019F938F9384E891E09F939F
:1006B0008F931F930F930E944B0B40E050E061E03B
:1006C000C8010E94850768E181E00E949E0740E022
:1006D00050E061E08DE691E00E94850764E281E0F0
:1006E0000E949E0740E050E061E084E791E00E94B4
:1006F00085070E94A3072FEF83E294EF21508040EB
:100700009040E1F700C000000F900F900F900F9005
:100710000F900F9010928F0110928E0110928D0108
:1007200010928C018CE490E0909319018093180151
:1007300085E490E090931B0180931A01109291013F
:1007400010929001109293011092920120919801C1
:100750003091990181E090E0232B11F080E090E04E
:1007600090939901809398016E960FB6F894DEBF2E
:100770000FBECDBFDF91CF911F910F910895809152
:100780001801909119010B976CF48091960190914A
:100790009701892B39F481E090E090939101809347
:1007A0009001F89480911A0190911B010B976CF4C1
:1007B0008091940190919501892B39F481E090E02A
:1007C0009093910180939001F89408950F931F9353
:1007D000CF93DF930E94F605789409E010E0C1E022
:1007E000D0E08091980190919901892B09F422C160
:1007F0000E94F6050E94B20129B180919601909164
:1008000097012470822B892B71F00E94F6050E94BB
:10081000B20110929501109294010E945401D0935C
:100820009701C093960129B180919401909195010F
:100830002870822B892B71F00E94F6050E94B2016C
:1008400010929701109296010E946501D093950134
:10085000C09394014B9904C0109295011092940199
:10086000209196013091970180919401909195018A
:10087000232B21F4892B11F40E94430180918E01D6
:1008800090918F01892B09F45EC080919201909123
:1008900093010B9764F480911A0190911B010E94BF
:1008A0001D0280911A0190911B01019748C080910F
:1008B0009201909193010A9734F080919201909166
:1008C00093014F9764F080919201909193018397E7
:1008D00094F08091920190919301CD9764F480916E
:1008E0001A0190911B010E941D0280911A019091A2
:1008F0001B01029724C08091920190919301CC97A3
:100900009CF080919201909193018634910564F45A
:1009100080911A0190911B010E941D0280911A0181
:1009200090911B0103970BC080911A0190911B01BC
:100930000E941D0280911A0190911B0104979093CF
:100940001B0180931A0180918C0190918D01892B5C
:1009500009F464C080919201909193010B9764F423
:1009600080911801909119010E94F0018091180165
:100970009091190101974EC080919201909193013D
:100980000A9794F080919201909193014F9764F4AB
:1009900080911801909119010E94F0018091180135
:1009A00090911901029736C0809192019091930124
:1009B0004E975CF08091920190919301CD972CF429
:1009C000809118019091190112C08091920190912B
:1009D0009301CD97A4F0809192019091930180357D
:1009E00091056CF4809118019091190102970E9471
:1009F000F001809118019091190103970BC080912B
:100A00001801909119010E94F001809118019091B4
:100A10001901049790931901809318010E9476019F
:100A20000E94A3070E94BF038091900190919101C1
:100A3000892B31F0DF91CF911F910F910C944A02D5
:100A4000809192019091930183709927892BA1F451
:100A500080919201909193014C9731F08091920195
:100A6000909193018C9721F410928F0110928E0136
:100A7000D0938F01C0938E01809192019091930148
:100A8000B8010E945509892B09F0ABCE80919201E3
:100A900090919301849739F0809192019091930104
:100AA0008834910521F410928D0110928C01D0931D
:100AB0008D01C0938C0195CE1F920F920FB60F92AD
:100AC00011248F939F938091980190919901892B84
:100AD00049F0809192019091930101969093930136
:100AE000809392018091960190919701019721F452
:100AF000109215011092140180911401909115012A
:100B00001816190654F0109297011092960181E080
:100B100090E090931501809314019F918F910F9015
:100B20000FBE0F901F9018952998662311F02B9AED
:100B300001C02B9827E030E090E0AC01022E02C00B
:100B4000559547950A94E2F740FF02C02C9A01C0E0
:100B50002C982D9A2D982150310978F7299A0895CB
:100B600060E00C949405CF93DF93219A229A239A04
:100B7000249A259A2A9A299A8FE39CE90197F1F7FA
:100B800000C000002A989FEF2AE683E091502040A1
:100B90008040E1F700C000002A9A299881E20E9473
:100BA000B00583E10E94B00586E00E94B00582ECAA
:100BB0000E94B00580E20E94B00589E00E94B00565
:100BC00080E80E94B00580E40E94B005C8EFD1E043
:100BD00061E080E00E9494052197D1F788E00E94AF
:100BE000B0058CE0DF91CF910C94B00580E80E94B5
:100BF000B00580E40E94B005109294031092950312
:100C000088EF91E0ECE9F1E0DF019C011D922150B9
:100C10003040E1F70895811102C084E201C080E212
:100C20000C94B005962F969596959695E82FF0E042
:100C300084E5989FE00DF11D1124E456FE4F677086
:100C400081E090E001C0880F6A95EAF7442319F02B
:100C50009081892B03C0809590818923808308959A
:100C60008F929F92AF92BF92DF92EF92FF920F937B
:100C70001F93CF93DF9300D000D01F92CDB7DEB784
:100C8000F62E282F082E000C330B80326CF02052E9
:100C9000310985E0829FB001839F700D112468594E
:100CA0007F4F45E050E00EC0220F331FF901EA5696
:100CB000FC4F008111810115110559F445E050E008
:100CC00068E670E0CE0101960E94420B8E010F5F34
:100CD0001F4F85E0F89E5001112497E0F99E4001D6
:100CE0001124D12C8D2D90E08A159B0544F5E12C23
:100CF0008E2D90E08815990504F58D2D6F2D0E949D
:100D00004909F801E80FF11D208130E08E2D0E9485
:100D1000490902C0359527958A95E2F760919503B8
:100D2000809194036E0D20FF02C041E001C040E0BD
:100D30008D0D0E941206E394DBCFD394D3CF809124
:100D4000940391E0980F8F2D880F880F8F0D890FD6
:100D5000843518F4809394030BC01092940380910F
:100D600095038F5F97E0F99E800D11248093950382
:100D700080919503803320F0109294031092950394
:100D80000F900F900F900F900F90DF91CF911F91C8
:100D90000F91FF90EF90DF90BF90AF909F908F905A
:100DA00008957F928F929F92AF92BF92CF92DF92DF
:100DB000EF92FF920F931F93CF93DF9300D000D059
:100DC0001F92CDB7DEB7F62E282F082E000C330B5E
:100DD00080326CF02052310985E0829FB001839F00
:100DE000700D112468597F4F45E050E00EC0220F6E
:100DF000331FF901EA56FC4F0081118101151105DD
:100E000059F445E050E068E670E0CE0101960E949A
:100E1000420B8E010F5F1F4F87E0F89E6001112487
:100E200095E0F99E50011124712C84E0882E912CBC
:100E3000872D90E08C159D0554F5E12C8E2D90E0CA
:100E40008A159B0514F58E2D6F2D0E944909F4011A
:100E5000E81BF109E00FF11F208130E0872D0E948F
:100E6000490902C0359527958A95E2F76091950367
:100E7000809194036E0D20FF02C041E001C040E06C
:100E8000870D0E941206E394D9CF7394D1CF80913D
:100E9000940391E0980F8F2D880F880F8F0D890F85
:100EA000843518F4809394030BC0109294038091BE
:100EB00095038F5F97E0F99E800D11248093950331
:100EC00080919503803320F0109294031092950343
:100ED0000F900F900F900F900F90DF91CF911F9177
:100EE0000F91FF90EF90DF90CF90BF90AF909F90C9
:100EF0008F907F90089580323CF4E82FEE0FFF0B27
:100F0000EA56FC4F7183608308951F93CF93DF935C
:100F1000162FEC01452B39F08991882359F0612F68
:100F20000E94D106F9CF8991882321F0612F0E9478
:100F30003006F9CFDF91CF911F91089580939403EC
:100F4000609395030895CF93DF9380E80E94B005E6
:100F500080E40E94B005CCE9D1E061E089910E9473
:100F6000940583E0C439D807C1F7DF91CF91089584
:100F70004F925F926F927F928F929F92AF92BF92A9
:100F8000CF92DF92EF92FF92CF93DF93CDB7DEB790
:100F90002E970FB6F894DEBF0FBECDBF8D87698741
:100FA000F22E642F70E0681B7109072E000C880B6D
:100FB000990B0E948D0A4B015C016F2D70E0298511
:100FC000621B7109072E000C880B990B0E948D0A79
:100FD0006B017C0124013501E89477F8DC01CB0139
:100FE000BF7789839A83AB83BC839C01AD01C30126
:100FF000B2010E94190B87FF04C049805A806B80A0
:101000007C80A3019201C501B4010E94EA096983B1
:101010007A838B839C83A3019201C701B6010E944E
:10102000EA096D837E838F839887AD856A2F70E090
:1010300080E090E00E948B0A6B017C01B9856B2FE8
:1010400070E080E090E00E948B0A4B015C0121E09F
:1010500030E03E872D87AD85BE85BD01BB0F880B77
:10106000990B0E948D0A9B01AC01C301B2010E9441
:10107000190B87FD2CC0C501B4010E945C0A698769
:101080007A878B879C87C701B6010E945C0ADC01C6
:10109000CB0141E069850E94120629813A814B818A
:1010A0005C81C701B6010E947E096B017C012D8124
:1010B0003E814F815885C501B4010E947E094B01D4
:1010C0005C018D859E8501969E878D87C4CF2E9667
:1010D0000FB6F894DEBF0FBECDBFDF91CF91FF906A
:1010E000EF90DF90CF90BF90AF909F908F907F90C8
:1010F0006F905F904F9008950F931F93CF93DF935E
:10110000C82F162F042FD22F262F0E94B8072D2F5D
:10111000402F612F802F0E94B8072D2F4C2F6D2F4D
:10112000802F0E94B807212F4C2F6D2F8C2FDF911D
:10113000CF911F910F910C94B8077F928F929F923D
:10114000AF92BF92CF92DF92EF92FF920F931F93D5
:10115000CF93DF93D82EC62EC42FD0E0E12CF12CF4
:1011600000E010E041E0AC2CA00E6A2DBC2EBD0CBE
:101170008B2D0E94120641E08C2E8C0C682D9D2C2C
:10118000900E892D0E94120641E0682D7D2C701A68
:10119000872D0E94120641E06A2D8D2C8C1A882D15
:1011A0000E94120641E0AC2CA01A6A2D882D0E94E4
:1011B000120641E08C2C8C1A682D872D0E94120695
:1011C00041E0682D892D0E94120641E06A2D8B2D89
:1011D0000E9412061E141F045CF00F5F1F4FC8010F
:1011E000880F991F0196E80EF91E1E141F043CF487
:1011F0002197CE01880F991F0196E81AF90AC017A6
:10120000D1070CF0AFCFDF91CF911F910F91FF90DD
:10121000EF90DF90CF90BF90AF909F908F907F9096
:101220000895F89410928000109281001092850029
:10123000109284008FEA98E290938900809388004E
:101240008091810088608093810080918100856019
:101250008093810080916F00826080936F008AB1DB
:101260008AB98BB18E608BB90E94B3050E947D0153
:10127000C1E0D0E0499BFECF809198019091990107
:10128000892BC1F7D0939901C09398010E94E6037E
:10129000F1CF991B79E004C0991F961708F0961BAF
:1012A000881F7A95C9F78095089597FB072E16F445
:1012B000009407D077FD09D00E94690907FC05D08A
:1012C0003EF4909581959F4F0895709561957F4F5D
:1012D0000895AA1BBB1B51E107C0AA1FBB1FA6177D
:1012E000B70710F0A61BB70B881F991F5A95A9F7CF
:1012F00080959095BC01CD0108955058BB27AA2731
:101300000E9495090C94DF0A0E94D10A38F00E94CD
:10131000D80A20F039F49F3F19F426F40C94CE0A31
:101320000EF4E095E7FB0C94C80AE92F0E94F00A3E
:1013300058F3BA17620773078407950720F079F40A
:10134000A6F50C94120B0EF4E0950B2EBA2FA02DDF
:101350000B01B90190010C01CA01A0011124FF2762
:10136000591B99F0593F50F4503E68F11A16F0405D
:10137000A22F232F342F4427585FF3CF469537955C
:101380002795A795F0405395C9F77EF41F16BA0B21
:10139000620B730B840BBAF09150A1F0FF0FBB1FCF
:1013A000661F771F881FC2F70EC0BA0F621F731F18
:1013B000841F48F4879577956795B795F7959E3F75
:1013C00008F0B0CF9395880F08F09927EE0F979506
:1013D000879508950E94FE090C94DF0A0E94D80A9E
:1013E00058F00E94D10A40F029F45F3F29F00C9494
:1013F000C80A51110C94130B0C94CE0A0E94F00AE7
:1014000068F39923B1F3552391F3951B550BBB2733
:10141000AA2762177307840738F09F5F5F4F220F78
:10142000331F441FAA1FA9F335D00E2E3AF0E0E86F
:1014300032D091505040E695001CCAF72BD0FE2FB9
:1014400029D0660F771F881FBB1F2617370748074D
:10145000AB07B0E809F0BB0B802DBF01FF27935805
:101460005F4F3AF09E3F510578F00C94C80A0C94F7
:10147000130B5F3FE4F3983ED4F386957795679519
:10148000B795F7959F5FC9F7880F911D969587953A
:1014900097F90895E1E0660F771F881FBB1F621759
:1014A00073078407BA0720F0621B730B840BBA0B17
:1014B000EE1F88F7E09508950E94F80A88F09F577C
:1014C00098F0B92F9927B751B0F0E1F0660F771F68
:1014D000881F991F1AF0BA95C9F714C0B13091F05E
:1014E0000E94120BB1E008950C94120B672F782F15
:1014F0008827B85F39F0B93FCCF386957795679523
:10150000B395D9F73EF490958095709561957F4F8E
:101510008F4F9F4F0895E89409C097FB3EF4909534
:101520008095709561957F4F8F4F9F4F9923A9F0BC
:10153000F92F96E9BB279395F6958795779567954B
:10154000B795F111F8CFFAF4BB0F11F460FF1BC08F
:101550006F5F7F4F8F4F9F4F16C0882311F096E922
:1015600011C0772321F09EE8872F762F05C06623D0
:1015700071F096E8862F70E060E02AF09A95660F89
:10158000771F881FDAF7880F9695879597F9089542
:1015900097F99F6780E870E060E008959FEF80EC26
:1015A000089500240A9416161706180609060895C9
:1015B00000240A9412161306140605060895092E2F
:1015C0000394000C11F4882352F0BB0F40F4BF2B9E
:1015D00011F460FF04C06F5F7F4F8F4F9F4F0895DE
:1015E00057FD9058440F551F59F05F3F71F04795D4
:1015F000880F97FB991F61F09F3F79F087950895B9
:10160000121613061406551FF2CF4695F1DF08C0D7
:10161000161617061806991FF1CF869571056105F4
:1016200008940895E894BB2766277727CB0197F99C
:1016300008950E941E0B08F48FEF0895990F00087B
:10164000550FAA0BE0E8FEEF16161706E807F90794
:10165000C0F012161306E407F50798F0621B730B2F
:10166000840B950B39F40A2661F0232B242B252BB0
:1016700021F408950A2609F4A140A6958FEF811D53
:10168000811D0895FB01DC0102C005900D924150BF
:101690005040D8F70895AEE0B0E0E1E5FBE00C94EF
:1016A0000C0E0D891E8986E08C831A8309838FEFC7
:1016B0009FE79E838D83AE01475E5F4F6F89788D74
:1016C000CE0101960E946D0BEF81F885E00FF11FAE
:1016D00010822E96E4E00C94280EABE0B0E0E3E735
:1016E000FBE00C94FE0D6C017B018A01FC0117826A
:1016F0001682838181FFCCC1CE0101963C01F601A7
:101700009381F70193FD859193FF81917F01882358
:1017100009F4BAC1853239F493FD859193FF819123
:101720007F01853229F4B60190E00E94640DE7CF75
:10173000912C212C312CFFE1F315D8F08B3279F06C
:1017400038F4803279F08332A1F4232D20611DC05A
:101750008D3261F0803369F4232D216016C0832D12
:101760008260382EE32DE4603E2E2AC0F32DF8600F
:101770001DC037FC2DC020ED280F2A3040F08E32DE
:10178000B9F436FC81C1232D2064322E19C036FEF7
:1017900006C08AE0989E200D1124922E11C0EAE026
:1017A0002E9E200D1124222EF32DF0623F2E08C014
:1017B0008C3621F4832D8068382E02C0883641F49F
:1017C000F70193FD859193FF81917F018111B3CF43
:1017D000982F9F7D9554933028F40C5F1F4F9FE303
:1017E00099830DC0833631F0833771F0833509F06A
:1017F00059C021C0F801808189830E5F1F4F882462
:101800008394912C530113C02801F2E04F0E511C18
:10181000F801A080B18036FE03C0692D70E002C0DF
:101820006FEF7FEFC5010E94590D4C018201F32D2E
:10183000FF773F2E16C0280122E0420E511CF8010E
:10184000A080B18036FE03C0692D70E002C06FEF4A
:101850007FEFC5010E944E0D4C01F32DF0683F2E25
:10186000820133FC1BC0822D90E088169906B0F4EB
:10187000B60180E290E00E94640D2A94F4CFF50155
:1018800037FC859137FE81915F01B60190E00E949F
:10189000640D21102A9421E0821A91088114910488
:1018A00071F7E8C0843611F0893641F5F80137FE4A
:1018B00007C060817181828193810C5F1F4F08C0D6
:1018C00060817181072E000C880B990B0E5F1F4FF2
:1018D000F32DFF763F2E97FF09C090958095709568
:1018E00061957F4F8F4F9F4FF0683F2E2AE030E089
:1018F000A3010E94A00D882E861845C0853731F4BB
:10190000232D2F7EB22E2AE030E025C0932D997F23
:10191000B92E8F36C1F018F4883579F0B5C080370C
:1019200019F0883721F0B0C0E92FE061BE2EB4FE77
:101930000DC0FB2DF460BF2E09C034FE0AC0292F54
:101940002660B22E06C028E030E005C020E130E07D
:1019500002C020E132E0F801B7FE07C0608171816A
:10196000828193810C5F1F4F06C06081718180E08E
:1019700090E00E5F1F4FA3010E94A00D882E8618D5
:10198000FB2DFF773F2E36FE0DC0232D2E7FA22E7E
:10199000891458F434FE0BC032FC09C0832D8E7EAE
:1019A000A82E05C0B82CA32C03C0B82C01C0B92C9C
:1019B000A4FE0FC0FE01E80DF11D8081803321F4EB
:1019C0009A2D997EA92E09C0A2FE06C0B394B394A5
:1019D00004C08A2D867809F0B394A3FC11C0A0FE40
:1019E00006C0B21488F4280C922C9B180EC0B214B6
:1019F00060F4B60180E290E00E94640DB394F7CFEA
:101A0000B21418F42B1802C0982C212CA4FE10C07C
:101A1000B60180E390E00E94640DA2FE17C0A1FC15
:101A200003C088E790E002C088E590E0B6010CC0F2
:101A30008A2D867859F0A1FE02C08BE201C080E2B7
:101A4000A7FC8DE2B60190E00E94640D891438F481
:101A5000B60180E390E00E94640D9A94F7CF8A94D7
:101A6000F301E80DF11D8081B60190E00E94640D44
:101A70008110F5CF222009F442CEB60180E290E039
:101A80000E94640D2A94F6CFF6018681978102C0E8
:101A90008FEF9FEF2B96E2E10C941A0EFC0105905C
:101AA000615070400110D8F7809590958E0F9F1F60
:101AB0000895FC016150704001900110D8F78095A5
:101AC00090958E0F9F1F08950F931F93CF93DF93D1
:101AD000FB01238121FD03C08FEF9FEF2CC022FF6C
:101AE00016C046815781248135814217530744F43B
:101AF000A081B1819D012F5F3F4F318320838C9363
:101B0000268137812F5F3F4F3783268314C08B0197
:101B1000EC01FB010084F185E02D0995892BE1F6AC
:101B2000D80116968D919C911797019617969C93C4
:101B30008E931697CE01DF91CF911F910F9108954B
:101B4000FA01AA27283051F1203181F1E8946F93EE
:101B50006E7F6E5F7F4F8F4F9F4FAF4FB1E03ED094
:101B6000B4E03CD0670F781F891F9A1FA11D680F32
:101B7000791F8A1F911DA11D6A0F711D811D911D65
:101B8000A11D20D009F468943F912AE0269F1124DA
:101B90003019305D3193DEF6CF010895462F47703E
:101BA000405D4193B3E00FD0C9F7F6CF462F4F7099
:101BB000405D4A3318F0495D31FD4052419302D0F7
:101BC000A9F7EACFB4E0A69597958795779567959D
:101BD000BA95C9F700976105710508959B01AC019D
:101BE0000A2E06945795479537952795BA95C9F7C4
:101BF000620F731F841F951FA01D08952F923F929F
:101C00004F925F926F927F928F929F92AF92BF920C
:101C1000CF92DF92EF92FF920F931F93CF93DF93B8
:101C2000CDB7DEB7CA1BDB0B0FB6F894DEBF0FBE15
:101C3000CDBF09942A88398848885F846E847D8462
:101C40008C849B84AA84B984C884DF80EE80FD8064
:101C50000C811B81AA81B981CE0FD11D0FB6F894DA
:0E1C6000DEBF0FBECDBFED010895F894FFCF9B
:101C6E0004623F6204181C7C1C1820703078182007
:101C7E0070387E06010001004C00450001004469E9
:101C8E006E6F736175722047616D6500507265737A
:101C9E0073205374617274210057202D204A554DC4
:101CAE00500053202D204455434B0053636F7265F3
:101CBE003A2025640047414D45204F56455221009C
:101CCE00484947482053434F5245533A004C6F3AC8
:101CDE00203834005265693A203332004D61743A2F
:0C1CEE0020313600596F753A2025640043
:00000001FF
