:100000000C9424010C9441010C9441010C94410185
:100010000C9441010C9441010C9441010C94410158
:100020000C9441010C9441010C9441010C94AE03D9
:100030000C9441010C9441010C9441010C94410138
:100040000C9441010C9441010C9441010C94410128
:100050000C9441010C9441010C9441010C94410118
:100060000C9441010C944101000000000000005F6D
:1000700000000007000700147F147F14242A7F2A41
:10008000122313086462364955225000050300000C
:10009000001C2241000041221C0014083E081408E4
:1000A000083E0808005030000008080808080060F2
:1000B00060000020100804023E5149453E00427F86
:1000C000400042615149462141454B311814127F8D
:1000D0001027454545393C4A494930017109050316
:1000E0003649494936064949291E0036360000007E
:1000F0005636000008142241001414141414004150
:100100002214080201510906324979413E7E11113B
:10011000117E7F494949363E414141227F4141227A
:100120001C7F494949417F090909013E4149497AF2
:100130007F0808087F00417F41002040413F017F48
:10014000081422417F404040407F020C027F7F0420
:1001500008107F3E4141413E7F090909063E415159
:10016000215E7F09192946464949493101017F012C
:10017000013F4040403F1F2040201F3F4038403F4C
:100180006314081463070870080761514945430068
:100190007F41410002040810200041417F00040219
:1001A0000102044040404040000102040020545439
:1001B00054787F48444438384444442038444448C0
:1001C0007F3854545418087E0901020C5252523E92
:1001D0007F0804047800447D40002040443D007FB7
:1001E0001028440000417F40007C041804787C08FB
:1001F00004047838444444387C1414140808141453
:10020000187C7C080404084854545420043F44409B
:10021000203C4040207C1C2040201C3C4030403C86
:1002200044281028440C5050503C4464544C440022
:100230000836410000007F00000041360800100829
:10024000081008000000000011241FBECFEFD8E006
:10025000DEBFCDBF11E0A0E0B1E0ECE5FBE102C004
:1002600005900D92A037B107D9F723E0A0E7B1E0E0
:1002700001C01D92AE3BB207E1F70E94C1070C948A
:10028000AC0D0C9400006FE071E081E00E94D60597
:1002900060E380E00E94F90550E040E062E082E225
:1002A00091E00E94E00508956FE071E081E00E9416
:1002B000D60562E181E00E94F90550E040E062E08D
:1002C00082E291E00E94E00508956AE071E081E039
:1002D0000E94D60560E381E00E94F90550E040E00D
:1002E00062E082E291E00E94E00508952FE243E59A
:1002F0006FE280E00E94130608950E94660460E0A9
:1003000083E00E94F90550E040E061E084E291E082
:100310000E94E0056CE085E00E94F90550E040E0B5
:1003200061E082E391E00E94E0050E94430168E100
:1003300084E10E94F90550E040E061E08FE391E044
:100340000E94E00564E284E10E94F90550E040E08B
:1003500061E088E491E00E94E0050E9476010E943D
:10036000FE0508950F931F93CF93DF93CDB7DEB7AC
:100370006E970FB6F894DEBF0FBECDBF60E080E091
:100380000E94F90580917601909177019F938F9358
:1003900081E591E09F938F938E010F5F1F4F1F9315
:1003A0000F930E94780A50E040E061E0C8010E948B
:1003B000E00529E043E569E080E00E9413060F9024
:1003C0000F900F900F900F900F906E960FB6F894BD
:1003D000DEBF0FBECDBFDF91CF911F910F9108956A
:1003E000CF93DF93EC0118161906A4F085E490E092
:1003F000909319018093180120917001309171013F
:1004000081E090E0232B11F090E080E09093710167
:100410008093700165E071E081E00E94D60560E2A2
:100420008C2F0E94F90550E040E062E082E291E00A
:100430000E94E005DF91CF910895CF93DF93EC0107
:1004400018161906A4F085E490E090931B018093A0
:100450001A01209172013091730181E090E0232B09
:1004600011F090E080E0909373018093720160E05E
:1004700071E081E00E94D60560E28C2F0E94F905B0
:1004800041E050E061E082E291E00E94E005DF910E
:10049000CF9108950E94660460E083E00E94F90510
:1004A00050E040E061E08BE591E00E94E0056CE007
:1004B00085E00E94F90550E040E061E088E691E0C7
:1004C0000E94E0050E9443010E9476010E94FE0501
:1004D0002FEF8FE493EC215080409040E1F700C073
:1004E000000080E00E947B040895809118019091A3
:1004F00019010B9744F480917A0190917B01892B2B
:1005000011F40E944A0280911A0190911B010B97ED
:1005100044F48091780190917901892B11F40C9425
:100520004A0208950F931F93CF93DF9300D000D01A
:10053000CDB7DEB790E080E00E949D0769837A83A3
:100540008B839C83CB010E94640A0E94660478948A
:1005500009E010E08091740190917501892B81F080
:10056000F8948AE090E090931D0180931C010F9015
:100570000F900F900F90DF91CF911F910F910895E1
:100580000E9466040E94B20129B180917A01909183
:100590007B012470822B892B61F0109279011092DB
:1005A00078010E94540181E090E090937B01809358
:1005B0007A0129B180917801909179012870822B7C
:1005C000892B61F010927B0110927A010E946501E3
:1005D00081E090E0909379018093780180917A0195
:1005E00090917B012091780130917901822B932B9E
:1005F000892B11F40E944301809172019091730143
:10060000892BD1F180917601909177010B9784F439
:1006100080911A0190911B010E941D0280911A0184
:1006200090911B01019790931B0180931A0124C0A4
:1006300080917601909177010A9794F080917601EC
:10064000909177014F9764F480911A0190911B016A
:100650000E941D0280911A0190911B010297E3CF25
:1006600080917601909177014E9734F080917601D8
:1006700090917701CD9744F3809170019091710131
:10068000892BA9F080917601909177010B97A4F5C1
:1006900080911801909119010E94F0018091180138
:1006A00090911901019790931901809318010E946C
:1006B00076010E94FE050E9475028091760190915C
:1006C000770183709927892B31F481E090E0909332
:1006D0007301809372018091760190917701B80146
:1006E0000E940508892B09F035CF81E090E09093B6
:1006F0007101809370012ECF8091760190917701E6
:100700000A9794F080917601909177014F9764F465
:1007100080911801909119010E94F00180911801B7
:10072000909119010297BFCF809176019091770146
:100730004E970CF4BCCF8091760190917701CD97C4
:100740000CF0B5CF80911801909119010E94F00131
:1007500080911801909119010397A5CF1F921FB6A0
:100760001F9211248F939F9380917C0190917D0122
:10077000892B49F0809176019091770101969093B1
:1007800077018093760180917801909179010197AA
:1007900049F48091160190911701019790931701E8
:1007A0008093160180917A0190917B01019721F449
:1007B0001092150110921401809116019091170169
:1007C0001816190654F0109279011092780181E000
:1007D00090E09093170180931601809114019091FD
:1007E00015011816190654F010927B0110927A0127
:1007F00081E090E090931501809314019F918F9177
:100800001F901FBE1F90189529986623A9F02B9A58
:1008100027E030E090E0AC01022E02C055954795EC
:100820000A94E2F740FF0AC02C9A2D9A2D98215085
:10083000310988F7299A08952B98EACF2C98F5CF9B
:1008400060E00C940404CF93DF93219A229A239AB8
:10085000249A259A2A9A299A8FE39CE90197F1F71D
:1008600000C000002A989FEF2AE683E091502040C4
:100870008040E1F700C000002A9A299881E20E9496
:10088000200483E10E94200486E00E94200482EC80
:100890000E94200480E20E94200489E00E9420043B
:1008A00080E80E94200480E40E942004C8EFD1E088
:1008B00061E080E00E9404042197D1F788E00E9463
:1008C00020048CE0DF91CF910C94200480E80E94FA
:1008D000200480E40E9420041092B8031092B9030F
:1008E000E0ECF1E088EF91E0DF019C011D922150E6
:1008F0003040E1F70895811103C084E20C94200494
:1009000080E2FCCF962F969596959695E82FF0E08D
:1009100084E5989FE00DF11D1124E054FE4F2081E5
:10092000677081E090E001C0880F6A95EAF7442380
:1009300019F0282B2083089580952823FBCF8F92D0
:100940009F92AF92BF92DF92EF92FF920F931F930D
:10095000CF93DF9300D000D00F92CDB7DEB7E82F52
:10096000F62E80320CF44DC0E05285E0E802B00172
:10097000112468597F4F45E050E0CE0101960E9456
:100980006F0A8E010F5F1F4F95E0F99E50011124F1
:1009900087E0F89E40011124E12CEA141B040CF4BA
:1009A00063C08091B8038F5F9F2D990F990F9F0DA2
:1009B000890F8093B803843558F08091B903109261
:1009C000B8038F5F97E0F99E800D11248093B903DF
:1009D0008091B903803320F01092B8031092B903CC
:1009E0000F900F900F900F900F90DF91CF911F916C
:1009F0000F91FF90EF90DF90BF90AF909F908F90FE
:100A00000895EE0FFF0BE058FE4F00811181011594
:100A1000110509F0B9CF45E050E068E670E0ADCFD0
:100A2000ED0D5E0D8E2D6F2D0E94F907D801A80FD8
:100A3000B11D2C9130E08D2D0E94F90702C0359533
:100A400027958A95E2F741E020FF40E06E2F852F41
:100A50000E948204D394E091B9035091B803D81452
:100A60001904F4F2E39499CFD12CF5CF7F928F92B1
:100A70009F92AF92BF92CF92DF92EF92FF920F932D
:100A80001F93CF93DF9300D000D00F92CDB7DEB786
:100A9000E82FF62E80320CF452C0E05285E0E802D6
:100AA000B001112468597F4F45E050E0CE01019616
:100AB0000E946F0A8E010F5F1F4F97E0F99E600141
:100AC000112485E0F89E50011124E12C84E0882E49
:100AD000912CEC141D040CF467C08091B8038F5F57
:100AE0009F2D990F990F9F0D890F8093B80384351F
:100AF00058F08091B9031092B8038F5F97E0F99E88
:100B0000800D11248093B9038091B903803320F0C4
:100B10001092B8031092B9030F900F900F900F909E
:100B20000F90DF91CF911F910F91FF90EF90DF9089
:100B3000CF90BF90AF909F908F907F900895EE0FD1
:100B4000FF0BE058FE4F008111810115110509F0DE
:100B5000B4CF45E050E068E670E0A8CFE70D5E0D49
:100B6000872D6F2D0E94F907D401A81BB109A00F92
:100B7000B11F2C9130E08E2D0E94F90702C03595EF
:100B800027958A95E2F741E020FF40E06E2F852F00
:100B90000E9482047394E091B9035091B8037A14CF
:100BA0001B04E4F2E39495CF712CF5CFE82F80324B
:100BB00034F4EE0FFF0BE058FE4F7183608308950D
:100BC0001F93CF93DF93EC01162F452B71F0899182
:100BD000811104C0DF91CF911F910895612F0E9470
:100BE0003605F5CF612F0E949F0489918111FACFBC
:100BF000F1CF8093B8036093B9030895CF93DF9347
:100C000080E80E94200480E40E942004C0ECD1E02F
:100C100061E089910E94040483E0C83BD807C1F7D2
:100C2000DF91CF9108954F925F926F927F928F9252
:100C30009F92AF92BF92CF92DF92EF92FF92CF93AB
:100C4000DF93CDB7DEB762970FB6F894DEBF0FBE65
:100C5000CDBF8D876987F22E481B550BCA01550FF2
:100C6000AA0BBB0B89839A83AB83BC83BC01CD01E8
:100C70000E94420969837A838B839C83AF2D4985C7
:100C8000A41BBB0BCD01BB0FAA0BBB0B8D839E839B
:100C9000AF83B887BC01CD010E9442096D837E837A
:100CA0008F839887C980DA80EB80FC80E894F7F81E
:100CB0004B015C01E894B7F8A5019401C701B601A6
:100CC0000E94F20987FF02C075016401A701960125
:100CD00069817A818B819C810E949F0869837A83D4
:100CE0008B839C834B015C01A70196016D817E8102
:100CF0008F8198850E949F082B013C019D85892F3B
:100D000090E0B0E0A0E089839A83AB83BC83BC0110
:100D1000CD010E94400969837A838B839C839985E6
:100D2000892F90E0B0E0A0E08D839E83AF83B887E9
:100D3000BC01CD010E9440096D837E838F8398871B
:100D4000A1E0B0E0BA8BA98B89899A89092E000CA1
:100D5000AA0BBB0B89879A87AB87BC87BC01CD01E7
:100D60000E94420969877A878B879C87A701960131
:100D70000E949A081816ACF462960FB6F894DEBF7B
:100D80000FBECDBFDF91CF91FF90EF90DF90CF905E
:100D9000BF90AF909F908F907F906F905F904F909B
:100DA00008956D817E818F8198850E9411096987E0
:100DB0007A878B879C8769817A818B819C810E944D
:100DC00011096D877E878F87988B41E069858D85B6
:100DD0000E948204A501940169817A818B819C81A2
:100DE0000E942E0869837A838B839C83A3019201DE
:100DF0006D817E818F8198850E942E086D837E8310
:100E00008F83988789899A8901969A8B898B9CCF41
:100E10000F931F93CF93DF93C82F162F042FD22F3A
:100E2000262F0E9413062D2F402F612F802F0E9406
:100E300013062D2F4C2F6D2F802F0E941306212F6C
:100E40004C2F6D2F8C2FDF91CF911F910F910C9410
:100E500013067F928F929F92AF92BF92CF92DF92B2
:100E6000EF92FF920F931F93CF93DF93D82EC62E4E
:100E7000C42FD0E0F12CE12C10E000E041E0AC2CDC
:100E8000A00E6A2DBC2EBD0C8B2D0E94820441E069
:100E90008C2E8C0C682D9D2C900E892D0E94820426
:100EA00041E0682D7D2C701A872D0E94820441E05C
:100EB0006A2D8D2C8C1A882D0E94820441E0AC2C66
:100EC000A01A6A2D882D0E94820441E08C2C8C1A75
:100ED000682D872D0E94820441E0682D892D0E9493
:100EE000820441E06A2D8B2D0E9482041E141F048F
:100EF0005CF00F5F1F4FC801880F991F0196E80E25
:100F0000F91E1E141F043CF42197CE01880F991F6F
:100F10000196E81AF90AC017D1070CF0AFCFDF919C
:100F2000CF911F910F91FF90EF90DF90CF90BF90E6
:100F3000AF909F908F907F900895A4E0B0E0E3EA97
:100F4000F7E00C94540DFC010FB6F8948091BA03AD
:100F50009091BB03A091BC03B091BD0389839A8398
:100F6000AB83BC830FBE309721F080839183A28333
:100F7000B38369817A818B819C812496E2E00C9411
:100F8000700DF894109280001092810010928500EC
:100F90001092840088E09DE39093890080938800FC
:100FA00080918100886080938100809181008560BC
:100FB0008093810080916F00826080936F008AB17E
:100FC0008AB98BB18E608BB90E9423040E947D0187
:100FD000C1E0D0E0499BFECF80917C0190917D01E2
:100FE000892BC1F7D0937D01C0937C010E949202AE
:100FF000F1CF991B79E004C0991F961708F0961B52
:10100000881F7A95C9F78095089597FB072E16F4E7
:10101000009407D077FD09D00E94190807FC05D07D
:101020003EF4909581959F4F0895709561957F4FFF
:101030000895AA1BBB1B51E107C0AA1FBB1FA6171F
:10104000B70710F0A61BB70B881F991F5A95A9F771
:1010500080959095BC01CD0108955058BB27AA27D3
:101060000E9445080C94B8090E94AA0938F00E9411
:10107000B10920F039F49F3F19F426F40C94A70924
:101080000EF4E095E7FB0C94A109E92F0E94C90931
:1010900058F3BA17620773078407950720F079F4AD
:1010A000A6F50C94EB090EF4E0950B2EBA2FA02DAB
:1010B0000B01B90190010C01CA01A0011124FF2705
:1010C000591B99F0593F50F4503E68F11A16F04000
:1010D000A22F232F342F4427585FF3CF46953795FF
:1010E0002795A795F0405395C9F77EF41F16BA0BC4
:1010F000620B730B840BBAF09150A1F0FF0FBB1F72
:10110000661F771F881FC2F70EC0BA0F621F731FBA
:10111000841F48F4879577956795B795F7959E3F17
:1011200008F0B0CF9395880F08F09927EE0F9795A8
:10113000879508950E947D0908F481E008950E9432
:10114000B3080C94B8090E94B10958F00E94AA098A
:1011500040F029F45F3F29F00C94A10951110C943F
:10116000EC090C94A7090E94C90968F39923B1F30B
:10117000552391F3951B550BBB27AA2762177307BD
:10118000840738F09F5F5F4F220F331F441FAA1F51
:10119000A9F335D00E2E3AF0E0E832D0915050400D
:1011A000E695001CCAF72BD0FE2F29D0660F771FBB
:1011B000881FBB1F261737074807AB07B0E809F0A1
:1011C000BB0B802DBF01FF2793585F4F3AF09E3F26
:1011D000510578F00C94A1090C94EC095F3FE4F3FD
:1011E000983ED4F3869577956795B795F7959F5F69
:1011F000C9F7880F911D9695879597F90895E1E0B5
:10120000660F771F881FBB1F621773078407BA0713
:1012100020F0621B730B840BBA0BEE1F88F7E0956E
:1012200008950E94D10988F09F5798F0B92F992707
:10123000B751B0F0E1F0660F771F881F991F1AF0C1
:10124000BA95C9F714C0B13091F00E94EB09B1E032
:1012500008950C94EB09672F782F8827B85F39F031
:10126000B93FCCF3869577956795B395D9F73EF45A
:1012700090958095709561957F4F8F4F9F4F089502
:10128000E89409C097FB3EF4909580957095619520
:101290007F4F8F4F9F4F9923A9F0F92F96E9BB27D6
:1012A0009395F695879577956795B795F111F8CF52
:1012B000FAF4BB0F11F460FF1BC06F5F7F4F8F4FBD
:1012C0009F4F16C0882311F096E911C0772321F0B3
:1012D0009EE8872F762F05C0662371F096E8862F4B
:1012E00070E060E02AF09A95660F771F881FDAF7A2
:1012F000880F9695879597F90895990F0008550FCF
:10130000AA0BE0E8FEEF16161706E807F907C0F08B
:1013100012161306E407F50798F0621B730B840B93
:10132000950B39F40A2661F0232B242B252B21F46D
:1013300008950A2609F4A140A6958FEF811D811D0D
:10134000089597F99F6780E870E060E008959FEF47
:1013500080EC089500240A9416161706180609064C
:10136000089500240A94121613061406050608951B
:10137000092E0394000C11F4882352F0BB0F40F4A3
:10138000BF2B11F460FF04C06F5F7F4F8F4F9F4FE3
:10139000089557FD9058440F551F59F05F3F71F065
:1013A0004795880F97FB991F61F09F3F79F08795CC
:1013B0000895121613061406551FF2CF4695F1DF55
:1013C00008C0161617061806991FF1CF86957105E5
:1013D000610508940895E894BB2766277727CB0119
:1013E00097F908950E947D0908F48FEF0895CF9230
:1013F000DF92EF92FF92CF93DF93CDB7DEB72A97BC
:101400000FB6F894DEBF0FBECDBF89879A87A98536
:10141000BA852D913D914D915C9129833A834B83FF
:101420005C83232B242B252B41F424E239ED4BE55F
:1014300057E029833A834B835C8369817A818B816E
:101440009C812DE133EF41E050E00E94120D6901D3
:101450007A01A7EAB1E49B01AC010E94310D6983D6
:101460007A838B839C83ACEEB4EFA70196010E9434
:101470003F0D9B01AC0189819A81AB81BC81820FB8
:10148000931FA41FB51FB7FF03C00197A109B04860
:10149000E985FA8580839183A283B3839F772A9617
:1014A0000FB6F894DEBF0FBECDBFDF91CF91FF9096
:1014B000EF90DF90CF9008950E94F70908958EE194
:1014C00091E00E94F7090895B0E0A0E080931E012A
:1014D00090931F01A0932001B09321010895FB0177
:1014E000DC0102C005900D9241505040D8F708959C
:1014F000AEE0B0E0EEE7FAE00C94520D0D891E89E3
:1015000086E08C831A8309838FEF9FE79E838D8308
:10151000AE01475E5F4F6F89788DCE0101960E94C4
:101520009B0A2F813885020F131FF80110822E9617
:10153000E4E00C946E0DAFE0B0E0E1EAFAE00C9468
:10154000440D7C013B018A01DC0117961C921E921E
:10155000169713968C9181FFBEC19AE0292EFE0149
:1015600031964F01D70113969C91F30193FD85911C
:1015700093FF81913F01882309F444C1853239F4F6
:1015800093FD859193FF81913F01853229F4B70145
:1015900090E00E94840CE6CFB12C412C512CBFE18D
:1015A000B51538F08B3209F188F4803201F18332BD
:1015B00021F157FC3AC020ED280F2A3040F556FEA5
:1015C0001FC0B29C200D1124B22E06C08D3291F0A6
:1015D000803379F7689450F8F30193FD859193FF78
:1015E00081913F018111DBCF20C0689451F868944C
:1015F00052F8F2CF689453F8EFCF689454F8ECCFD8
:10160000429C200D1124422E689455F8E5CF8E326D
:1016100029F456FCF7C0689456F8DECF8C3619F4DE
:10162000689457F8D9CF8836B9F2982F9F7D955492
:101630009330C0F0833681F18337A1F1833509F00F
:101640005BC0D801CD90DD908D016B2D70E056FC14
:1016500002C06FEF7FEFC6010E946E0C5C016894C0
:1016600057F80AC00C5F1F4FEFE3E983AA24A39445
:10167000B12C6401E89457F853FE29C0342CA1140E
:10168000B10451F5332009F46DCFB70180E290E049
:101690000E94840C3A94F6CFD8018C9189830E5F16
:1016A0001F4FE4CFF801C190D1908F016B2D70E0F6
:1016B00056FC02C06FEF7FEFC6010E94790C5C01FF
:1016C000D9CFB70180E290E00E94840C4A944A147A
:1016D0001B0409F0B0F7D2CFF60157FC859157FEF5
:1016E00081916F01B70190E00E94840C31103A940F
:1016F000B1E0AB1AB108C3CF843619F0893609F0CE
:1017000071C0F80157FE67C061917191819191910B
:101710008F01E52DEF76DE2E97FF09C0909580951D
:10172000709561957F4F8F4F9F4F6894D7F82AE04F
:1017300030E0A4010E94B40CC82EC818AC2C5D2C5B
:10174000D6FE0CC0E89450F8CB1440F4D4FE05C08B
:10175000D2FC03C05D2D5E7E552EAB2C54FE93C093
:10176000FE01EC0DF11D8081803309F085C0652DEF
:10177000697E562E752D7870372E53FC93C050FE1F
:101780008DC0BC2CA41410F4B40CBA1854FE90C034
:10179000B70180E390E00E94840C52FE07C088E706
:1017A00051FC88E590E0B7010E94840CCB1408F44A
:1017B0008BC0CA94D12C8FEFC81AD80AC80CD91C78
:1017C000D6018E916D01B70190E00E94840C8C14BB
:1017D0009D04B1F757CF61917191072E000C880BD2
:1017E000990B96CFD52CE894D4F82AE0853729F1C7
:1017F000F52DF97FDF2E8037A1F058F48835A1F060
:101800008F36D1F0F701868197812F96E2E10C9413
:10181000600D8837B9F7D4FE02C06894D2F820E191
:101820000CC06894D4F8F7CF54FE03C02F2F266065
:10183000D22E20E132E002C028E030E0F801D7FEED
:1018400015C041915191619171914C875D876E876F
:101850007F878F01A4016C857D858E859F850E9481
:10186000B40CC82EC818E894D7F868CF819191912C
:10187000AC0170E060E0E9CF52FC02C0A3947ACFE3
:10188000A394A39477CF852D867809F473CFF6CFF0
:10189000B70180E290E00E94840CA394A414C0F3EA
:1018A000312C74CF342C3A18A41408F46FCFF8CF2D
:1018B000852D867809F47ACF8BE251FE80E257FCC1
:1018C0008DE2B70190E070CFB70180E390E00E9415
:1018D000840CBA946BCF8FEF9FEF97CFFC010590EC
:1018E000615070400110D8F7809590958E0F9F1F22
:1018F0000895FC016150704001900110D8F7809567
:1019000090958E0F9F1F08950F931F93CF93DF9392
:10191000182F092FEB018B8181FD09C01FEF0FEFFD
:10192000812F902FDF91CF911F910F91089582FF0A
:1019300014C02E813F818C819D81281739073CF48A
:10194000E881F981CF0101969983888310838E8184
:101950009F8101969F838E83E3CFE885F985812F50
:101960000995892BA1F3DACFFA01AA27283051F182
:10197000203181F1E8946F936E7F6E5F7F4F8F4FC0
:101980009F4FAF4FB1E03ED0B4E03CD0670F781F1F
:10199000891F9A1FA11D680F791F8A1F911DA11D04
:1019A0006A0F711D811D911DA11D20D009F468943D
:1019B0003F912AE0269F11243019305D3193DEF6E5
:1019C000CF010895462F4770405D4193B3E00FD09B
:1019D000C9F7F6CF462F4F70405D4A3318F0495D86
:1019E00031FD4052419302D0A9F7EACFB4E0A69569
:1019F0009795879577956795BA95C9F7009761058B
:101A0000710508959B01AC010A2E069457954795E0
:101A100037952795BA95C9F7620F731F841F951FD5
:101A2000A01D0895052E97FB1EF400940E94290D19
:101A300057FD07D00E947B0D07FC03D04EF40C9499
:101A4000290D50954095309521953F4F4F4F5F4F51
:101A5000089590958095709561957F4F8F4F9F4F1A
:101A600008950E949D0DA59F900DB49F900DA49F79
:101A7000800D911D11240895B7FF0C94310D0E9423
:101A8000310D821B930B08952F923F924F925F92DC
:101A90006F927F928F929F92AF92BF92CF92DF927E
:101AA000EF92FF920F931F93CF93DF93CDB7DEB7E3
:101AB000CA1BDB0B0FB6F894DEBF0FBECDBF099477
:101AC0002A88398848885F846E847D848C849B84CE
:101AD000AA84B984C884DF80EE80FD800C811B81DC
:101AE000AA81B981CE0FD11D0FB6F894DEBF0FBE0B
:101AF000CDBFED010895A1E21A2EAA1BBB1BFD016B
:101B00000DC0AA1FBB1FEE1FFF1FA217B307E407DC
:101B1000F50720F0A21BB30BE40BF50B661F771F34
:101B2000881F991F1A9469F7609570958095909514
:101B30009B01AC01BD01CF010895A29FB001B39FED
:101B4000C001A39F700D811D1124911DB29F700DC6
:0C1B5000811D1124911D0895F894FFCF11
:101B5C0004623F6204181C7C1C182070307818201A
:101B6C0070387E06020002003F0045000A000100AA
:101B7C000000010044696E6F736175722047616DDE
:101B8C006500507265737320537461727421005731
:101B9C00202D204A554D500053202D204455434BA9
:101BAC000053636F72653A20256400566F6365209D
:101BBC0050657264657521005265737461727400AE
:00000001FF
