:100000000C9424010C9441010C9441010C94410185
:100010000C9441010C9441010C9441010C94410158
:100020000C9441010C9441010C9441010C940F0576
:100030000C9441010C9441010C9441010C94410138
:100040000C9441010C9441010C9441010C94410128
:100050000C9441010C9441010C9441010C94410118
:100060000C9441010C944101000000000000005F6D
:1000700000000007000700147F147F14242A7F2A41
:10008000122313086462364955225000050300000C
:10009000001C2241000041221C0014083E081408E4
:1000A000083E0808005030000008080808080060F2
:1000B00060000020100804023E5149453E00427F86
:1000C000400042615149462141454B311814127F8D
:1000D0001027454545393C4A494930017109050316
:1000E0003649494936064949291E0036360000007E
:1000F0005636000008142241001414141414004150
:100100002214080201510906324979413E7E11113B
:10011000117E7F494949363E414141227F4141227A
:100120001C7F494949417F090909013E4149497AF2
:100130007F0808087F00417F41002040413F017F48
:10014000081422417F404040407F020C027F7F0420
:1001500008107F3E4141413E7F090909063E415159
:10016000215E7F09192946464949493101017F012C
:10017000013F4040403F1F2040201F3F4038403F4C
:100180006314081463070870080761514945430068
:100190007F41410002040810200041417F00040219
:1001A0000102044040404040000102040020545439
:1001B00054787F48444438384444442038444448C0
:1001C0007F3854545418087E0901020C5252523E92
:1001D0007F0804047800447D40002040443D007FB7
:1001E0001028440000417F40007C041804787C08FB
:1001F00004047838444444387C1414140808141453
:10020000187C7C080404084854545420043F44409B
:10021000203C4040207C1C2040201C3C4030403C86
:1002200044281028440C5050503C4464544C440022
:100230000836410000007F00000041360800100829
:10024000081008000000000011241FBECFEFD8E006
:10025000DEBFCDBF11E0A0E0B1E0E0E2FCE102C012
:1002600005900D92AC38B107D9F723E0ACE8B1E0C6
:1002700001C01D92A63DB207E1F70E94FE080C9452
:100280000E0E0C9400006FE071E081E00E943707D1
:1002900060E380E00E945A0750E040E062E08CE1B9
:1002A00091E00E94410708956FE071E081E00E94B3
:1002B000370762E181E00E945A0750E040E062E0C7
:1002C0008CE191E00E94410708956AE071E081E0CD
:1002D0000E94370760E381E00E945A0750E040E047
:1002E00062E08CE191E00E94410708952FE243E52E
:1002F0006FE280E00E94740708950E94C70560E0E5
:1003000083E00E945A0750E040E061E08EE191E016
:100310000E9441076CE085E00E945A0750E040E0EF
:1003200061E08CE291E00E9441070E94430168E194
:1003300084E10E945A0750E040E061E089E391E0E7
:100340000E94410764E284E10E945A0750E040E0C5
:1003500061E082E491E00E9441070E9476010E94E0
:100360005F0708950F931F93CF93DF93CDB7DEB749
:100370006E970FB6F894DEBF0FBECDBF60E080E091
:100380000E945A0780919201909193019F938F93BD
:100390008BE491E09F938F938E010F5F1F4F1F930C
:1003A0000F930E943D0B50E040E061E0C8010E94C5
:1003B000410729E043E569E080E00E9474070F905F
:1003C0000F900F900F900F900F906E960FB6F894BD
:1003D000DEBF0FBECDBFDF91CF911F910F9108956A
:1003E000CF93DF93EC0118161906A4F085E490E092
:1003F000909319018093180120918C0130918D0107
:1004000081E090E0232B11F090E080E090938D014B
:1004100080938C0165E071E081E00E94370760E223
:100420008C2F0E945A0750E040E062E08CE191E09E
:100430000E944107DF91CF910895CF93DF93EC01A4
:1004400018161906A4F085E490E090931B018093A0
:100450001A0120918E0130918F0181E090E0232BD1
:1004600011F090E080E090938F0180938E0160E026
:1004700071E081E00E94370760E28C2F0E945A07EA
:1004800041E050E061E08CE191E00E944107DF91A2
:10049000CF9108950F931F93CF93DF93CDB7DEB71E
:1004A0006E970FB6F894DEBF0FBECDBF0E94C70592
:1004B00060E083E00E945A0750E040E061E085E59B
:1004C00091E00E9441076CE081E00E945A07809110
:1004D0009201909193019F938F938BE491E09F936E
:1004E0008F938E010F5F1F4F1F930F930E943D0B41
:1004F00050E040E061E0C8010E9441070E9476019F
:100500000E945F072FEF8FE493EC215080409040D2
:10051000E1F700C000000E94C70560E083E00E9490
:100520005A0750E040E061E080E691E00E94410718
:1005300029E043E569E080E00E9474076CE081E017
:100540000E945A0780919201909193010F900F9011
:100550000F900F900F900F904097D4F56CE081E0D2
:100560000E945A0750E040E061E08DE691E00E9471
:10057000410768E181E00E945A0750E040E061E0F5
:1005800084E791E00E94410764E281E00E945A07FB
:1005900050E040E061E08CE791E00E9441070E945A
:1005A0005F072FEF83E294EF215080409040E1F706
:1005B00000C0000080E00E94DC056E960FB6F89443
:1005C000DEBF0FBECDBFDF91CF911F910F91089578
:1005D000809192019091930141970CF447C08091D2
:1005E00092019091930180970CF040C06CE081E003
:1005F0000E945A0750E040E061E08DE691E00E94E1
:10060000410768E181E00E945A0750E040E061E064
:1006100084E791E00E94410764E281E00E945A076A
:1006200080919201909193019F938F9384E891E040
:100630009F938F931F930F930E943D0B50E040E0D8
:1006400061E0C8010E9441070E945F072FEF83E22B
:1006500094EF215080409040E1F700C000000F90DF
:100660000F900F900F900F900F90A4CF8091920158
:10067000909193016CE081979CF18091920190910F
:1006800093018435910564F581E00E945A0750E09A
:1006900040E061E08DE691E00E94410768E181E081
:1006A0000E945A0780919201909193019F938F939A
:1006B00084E891E09F938F931F930F930E943D0BCB
:1006C00050E040E061E0C8010E94410764E281E03F
:1006D0000E945A0750E040E061E084E791E0B2CF29
:1006E00081E00E945A0780919201909193019F931B
:1006F0008F9384E891E09F938F931F930F930E94B1
:100700003D0B50E040E061E0C8010E94410768E114
:1007100081E00E945A0750E040E061E08DE691E000
:10072000D3CF80911801909119010B9744F48091D7
:10073000960190919701892B11F40E944A028091B1
:100740001A0190911B010B9744F4809194019091B0
:100750009501892B11F40C944A0208950F931F936D
:10076000CF93DF930E94C705789409E010E0C1E0C1
:10077000D0E08091980190919901892B31F4F894FF
:10078000DF91CF911F910F9108950E94C7050E949C
:10079000B20129B180919601909197012470822B2A
:1007A000892B51F010929501109294010E945401EE
:1007B000D0939701C093960129B1809194019091B3
:1007C00095012870822B892B51F01092970110927D
:1007D00096010E946501D0939501C0939401809188
:1007E0009601909197012091940130919501822B6F
:1007F000932B892B11F40E94430180918E019091DB
:100800008F01892BB1F080919201909193010B9708
:100810000CF06DC080911A0190911B010E941D0285
:1008200080911A0190911B01019790931B01809375
:100830001A0180918C0190918D01892BB1F08091EA
:100840009201909193010B970CF09AC0809118013E
:10085000909119010E94F001809118019091190165
:10086000019790931901809318010E9476010E94CC
:100870005F070E9491038091920190919301837090
:100880009927892BA1F480919201909193014C9723
:1008900031F080919201909193018C9721F4109204
:1008A0008F0110928E01D0938F01C0938E018091A1
:1008B000920190919301B8010E944209892B09F09D
:1008C00058CF8091920190919301849739F0809153
:1008D0009201909193018834910521F410928D0139
:1008E00010928C01D0938D01C0938C0142CF8091E6
:1008F0009201909193010A9794F0809192019091C6
:1009000093014F9764F480911A0190911B010E940A
:100910001D0280911A0190911B01029786CF809150
:10092000920190919301839734F08091920190917C
:100930009301CD9744F38091920190919301CC97CC
:100940009CF080919201909193018634910564F41A
:1009500080911A0190911B010E941D0280911A0141
:1009600090911B01039761CF80911A0190911B0117
:100970000E941D0280911A0190911B01049755CF8E
:1009800080919201909193010A9794F08091920145
:10099000909193014F9764F48091180190911901FF
:1009A0000E94F0018091180190911901029759CF8E
:1009B00080919201909193014E9794F080919201D1
:1009C00090919301CD9764F4809118019091190151
:1009D0000E94F0018091180190911901039741CF75
:1009E0008091920190919301CD976CF0809192014A
:1009F000909193018035910534F480911801909184
:100A000019010297E5CF80911801909119010E9478
:100A1000F0018091180190911901049722CF1F9243
:100A20001FB61F9211248F939F93809198019091EC
:100A30009901892B49F0809192019091930101963F
:100A400090939301809392018091940190919501EC
:100A5000019749F4809116019091170101979093A5
:100A6000170180931601809196019091970101974B
:100A700021F41092150110921401809116019091A9
:100A800017011816190654F010929501109294014E
:100A900081E090E0909317018093160180911401FA
:100AA000909115011816190654F0109297011092A2
:100AB000960181E090E090931501809314019F913D
:100AC0008F911F901FBE1F90189529986623A9F03B
:100AD0002B9A27E030E090E0AC01022E02C0559541
:100AE00047950A94E2F740FF0AC02C9A2D9A2D9858
:100AF0002150310988F7299A08952B98EACF2C982C
:100B0000F5CF60E00C946505CF93DF93219A229A8C
:100B1000239A249A259A2A9A299A8FE39CE9019785
:100B2000F1F700C000002A989FEF2AE683E0915079
:100B300020408040E1F700C000002A9A299881E215
:100B40000E94810583E10E94810586E00E94810563
:100B500082EC0E94810580E20E94810589E00E946A
:100B6000810580E80E94810580E40E948105C8EF2C
:100B7000D1E061E080E00E9465052197D1F788E02F
:100B80000E9481058CE0DF91CF910C94810580E873
:100B90000E94810580E40E9481051092D403109286
:100BA000D503ECEDF1E088EF91E0DF019C011D92AF
:100BB00021503040E1F70895811103C084E20C9484
:100BC000810580E2FCCF962F969596959695E82F15
:100BD000F0E084E5989FE00DF11D1124E452FE4FF2
:100BE0002081677081E090E001C0880F6A95EAF784
:100BF000442319F0282B2083089580952823FBCFC8
:100C00008F929F92AF92BF92DF92EF92FF920F93DB
:100C10001F93CF93DF9300D000D00F92CDB7DEB7F4
:100C2000E82FF62E80320CF44DC0E05285E0E80249
:100C3000B001112468597F4F45E050E0CE01019684
:100C40000E94340B8E010F5F1F4F95E0F99E5001FB
:100C5000112487E0F89E40011124E12CEA141B04C2
:100C60000CF463C08091D4038F5F9F2D990F990F6F
:100C70009F0D890F8093D403843558F08091D5035C
:100C80001092D4038F5F97E0F99E800D112480931A
:100C9000D5038091D503803320F01092D4031092B5
:100CA000D5030F900F900F900F900F90DF91CF9181
:100CB0001F910F91FF90EF90DF90BF90AF909F90AA
:100CC0008F900895EE0FFF0BE456FE4F00811181C7
:100CD0000115110509F0B9CF45E050E068E670E074
:100CE000ADCFED0D5E0D8E2D6F2D0E943609D80112
:100CF000A80FB11D2C9130E08D2D0E94360902C045
:100D0000359527958A95E2F741E020FF40E06E2F68
:100D1000852F0E94E305D394E091D5035091D4032D
:100D2000D8141904F4F2E39499CFD12CF5CF7F9223
:100D30008F929F92AF92BF92CF92DF92EF92FF92EB
:100D40000F931F93CF93DF9300D000D00F92CDB7B6
:100D5000DEB7E82FF62E80320CF452C0E05285E068
:100D6000E802B001112468597F4F45E050E0CE0100
:100D700001960E94340B8E010F5F1F4F97E0F99E82
:100D80006001112485E0F89E50011124E12C84E0DB
:100D9000882E912CEC141D040CF467C08091D403B0
:100DA0008F5F9F2D990F990F9F0D890F8093D4030B
:100DB000843558F08091D5031092D4038F5F97E06B
:100DC000F99E800D11248093D5038091D503803343
:100DD00020F01092D4031092D5030F900F900F9033
:100DE0000F900F90DF91CF911F910F91FF90EF9097
:100DF000DF90CF90BF90AF909F908F907F9008959D
:100E0000EE0FFF0BE456FE4F008111810115110515
:100E100009F0B4CF45E050E068E670E0A8CFE70DF8
:100E20005E0D872D6F2D0E943609D401A81BB109D4
:100E3000A00FB11F2C9130E08E2D0E94360902C008
:100E4000359527958A95E2F741E020FF40E06E2F27
:100E5000852F0E94E3057394E091D5035091D4034C
:100E60007A141B04E4F2E39495CF712CF5CFE82FAC
:100E7000803234F4EE0FFF0BE456FE4F7183608333
:100E800008951F93CF93DF93EC01162F452B71F03C
:100E90008991811104C0DF91CF911F910895612F35
:100EA0000E949706F5CF612F0E940006899181115B
:100EB000FACFF1CF8093D4036093D5030895CF93F5
:100EC000DF9380E80E94810580E40E948105CCEDDB
:100ED000D1E061E089910E94650583E0C43DD807B7
:100EE000C1F7DF91CF9108954F925F926F927F92F9
:100EF0008F929F92AF92BF92CF92DF92EF92FF922A
:100F0000CF93DF93CDB7DEB762970FB6F894DEBF0D
:100F10000FBECDBF8D876987F22E481B550BCA01C6
:100F2000550FAA0BBB0B89839A83AB83BC83BC018F
:100F3000CD010E947F0A69837A838B839C83AF2DC6
:100F40004985A41BBB0BCD01BB0FAA0BBB0B8D832B
:100F50009E83AF83B887BC01CD010E947F0A6D8359
:100F60007E838F839887C980DA80EB80FC80E89449
:100F7000F7F84B015C01E894B7F8A5019401C701AB
:100F8000B6010E942F0B87FF02C075016401A70103
:100F9000960169817A818B819C810E94DC09698339
:100FA0007A838B839C834B015C01A70196016D8141
:100FB0007E818F8198850E94DC092B013C019D85F3
:100FC000892F90E0B0E0A0E089839A83AB83BC8353
:100FD000BC01CD010E947D0A69837A838B839C8347
:100FE0009985892F90E0B0E0A0E08D839E83AF8348
:100FF000B887BC01CD010E947D0A6D837E838F83FB
:101000009887A1E0B0E0BA8BA98B89899A89092ECB
:10101000000CAA0BBB0B89879A87AB87BC87BC01E6
:10102000CD010E947F0A69877A878B879C87A701F9
:1010300096010E94D7091816ACF462960FB6F89480
:10104000DEBF0FBECDBFDF91CF91FF90EF90DF905D
:10105000CF90BF90AF909F908F907F906F905F9058
:101060004F9008956D817E818F8198850E944E0AF0
:1010700069877A878B879C8769817A818B819C813C
:101080000E944E0A6D877E878F87988B41E0698525
:101090008D850E94E305A501940169817A818B8188
:1010A0009C810E946B0969837A838B839C83A30153
:1010B00092016D817E818F8198850E946B096D837D
:1010C0007E838F83988789899A8901969A8B898BE9
:1010D0009CCF0F931F93CF93DF93C82F162F042F0E
:1010E000D22F262F0E9474072D2F402F612F802F83
:1010F0000E9474072D2F4C2F6D2F802F0E94740794
:10110000212F4C2F6D2F8C2FDF91CF911F910F919D
:101110000C9474077F928F929F92AF92BF92CF925E
:10112000DF92EF92FF920F931F93CF93DF93D82E0E
:10113000C62EC42FD0E0F12CE12C10E000E041E0FD
:10114000AC2CA00E6A2DBC2EBD0C8B2D0E94E3058D
:1011500041E08C2E8C0C682D9D2C900E892D0E94C8
:10116000E30541E0682D7D2C701A872D0E94E30570
:1011700041E06A2D8D2C8C1A882D0E94E30541E0F8
:10118000AC2CA01A6A2D882D0E94E30541E08C2C1E
:101190008C1A682D872D0E94E30541E0682D892D6A
:1011A0000E94E30541E06A2D8B2D0E94E3051E1489
:1011B0001F045CF00F5F1F4FC801880F991F019635
:1011C000E80EF91E1E141F043CF42197CE01880F6F
:1011D000991F0196E81AF90AC017D1070CF0AFCF92
:1011E000DF91CF911F910F91FF90EF90DF90CF9003
:1011F000BF90AF909F908F907F900895F894109239
:1012000080001092810010928500109284008FEA75
:1012100098E2909389008093880080918100886093
:10122000809381008091810085608093810080910E
:101230006F00826080936F008AB18AB98BB18E6033
:101240008BB90E9484050E947D01C1E0D0E0499BDA
:10125000FECF8091980190919901892BC1F7D0938D
:101260009901C09398010E94AE03F1CF991B79E0D8
:1012700004C0991F961708F0961B881F7A95C9F726
:101280008095089597FB072E16F4009407D077FDFC
:1012900009D00E94560907FC05D03EF4909581952F
:1012A0009F4F0895709561957F4F0895AA1BBB1BB2
:1012B00051E107C0AA1FBB1FA617B70710F0A61B56
:1012C000B70B881F991F5A95A9F780959095BC0177
:1012D000CD0108955058BB27AA270E9482090C947B
:1012E000F50A0E94E70A38F00E94EE0A20F039F46D
:1012F0009F3F19F426F40C94E40A0EF4E095E7FB02
:101300000C94DE0AE92F0E94060B58F3BA17620705
:1013100073078407950720F079F4A6F50C94280B41
:101320000EF4E0950B2EBA2FA02D0B01B901900100
:101330000C01CA01A0011124FF27591B99F0593F44
:1013400050F4503E68F11A16F040A22F232F342F8C
:101350004427585FF3CF469537952795A795F040DA
:101360005395C9F77EF41F16BA0B620B730B840BEF
:10137000BAF09150A1F0FF0FBB1F661F771F881FA7
:10138000C2F70EC0BA0F621F731F841F48F48795FF
:1013900077956795B795F7959E3F08F0B0CF9395F1
:1013A000880F08F09927EE0F9795879508950E946A
:1013B000BA0A08F481E008950E94F0090C94F50A35
:1013C0000E94EE0A58F00E94E70A40F029F45F3FBD
:1013D00029F00C94DE0A51110C94290B0C94E40AA8
:1013E0000E94060B68F39923B1F3552391F3951BE3
:1013F000550BBB27AA2762177307840738F09F5F36
:101400005F4F220F331F441FAA1FA9F335D00E2EA2
:101410003AF0E0E832D091505040E695001CCAF70F
:101420002BD0FE2F29D0660F771F881FBB1F2617D2
:1014300037074807AB07B0E809F0BB0B802DBF01A9
:10144000FF2793585F4F3AF09E3F510578F00C9478
:10145000DE0A0C94290B5F3FE4F3983ED4F38695A3
:1014600077956795B795F7959F5FC9F7880F911D99
:101470009695879597F90895E1E0660F771F881F85
:10148000BB1F621773078407BA0720F0621B730B38
:10149000840BBA0BEE1F88F7E09508950E940E0B9F
:1014A00088F09F5798F0B92F9927B751B0F0E1F025
:1014B000660F771F881F991F1AF0BA95C9F714C0D5
:1014C000B13091F00E94280BB1E008950C94280BE4
:1014D000672F782F8827B85F39F0B93FCCF386950E
:1014E00077956795B395D9F73EF49095809570956B
:1014F00061957F4F8F4F9F4F0895E89409C097FBE8
:101500003EF490958095709561957F4F8F4F9F4FDA
:101510009923A9F0F92F96E9BB279395F69587951E
:1015200077956795B795F111F8CFFAF4BB0F11F4E1
:1015300060FF1BC06F5F7F4F8F4F9F4F16C0882388
:1015400011F096E911C0772321F09EE8872F762FBE
:1015500005C0662371F096E8862F70E060E02AF0FF
:101560009A95660F771F881FDAF7880F96958795EB
:1015700097F90895990F0008550FAA0BE0E8FEEFC0
:1015800016161706E807F907C0F012161306E40747
:10159000F50798F0621B730B840B950B39F40A2640
:1015A00061F0232B242B252B21F408950A2609F41E
:1015B000A140A6958FEF811D811D089597F99F6722
:1015C00080E870E060E008959FEF80EC08950024CB
:1015D0000A941616170618060906089500240A9498
:1015E00012161306140605060895092E0394000C1E
:1015F00011F4882352F0BB0F40F4BF2B11F460FFAD
:1016000004C06F5F7F4F8F4F9F4F089557FD9058D5
:10161000440F551F59F05F3F71F04795880F97FBB6
:10162000991F61F09F3F79F0879508951216130670
:101630001406551FF2CF4695F1DF08C0161617069F
:101640001806991FF1CF86957105610508940895D4
:10165000E894BB2766277727CB0197F908950E9466
:10166000BA0A08F48FEF0895FB01DC0102C005906F
:101670000D9241505040D8F70895AEE0B0E0E3E459
:10168000FBE00C94E50D0D891E8986E08C831A839E
:1016900009838FEF9FE79E838D83AE01475E5F4F87
:1016A0006F89788DCE0101960E94600B2F8138855D
:1016B000020F131FF80110822E96E4E00C94010E25
:1016C000AFE0B0E0E6E6FBE00C94D70D7C013B0117
:1016D0008A01DC0117961C921E92169713968C9124
:1016E00081FFBEC19AE0292EFE0131964F01D7013C
:1016F00013969C91F30193FD859193FF81913F0196
:10170000882309F444C1853239F493FD859193FF10
:1017100081913F01853229F4B70190E00E94490D83
:10172000E6CFB12C412C512CBFE1B51538F08B32EE
:1017300009F188F4803201F1833221F157FC3AC07B
:1017400020ED280F2A3040F556FE1FC0B29C200D18
:101750001124B22E06C08D3291F0803379F768944F
:1017600050F8F30193FD859193FF81913F01811121
:10177000DBCF20C0689451F8689452F8F2CF689497
:1017800053F8EFCF689454F8ECCF429C200D11240D
:10179000422E689455F8E5CF8E3229F456FCF7C0F6
:1017A000689456F8DECF8C3619F4689457F8D9CF80
:1017B0008836B9F2982F9F7D95549330C0F08336C8
:1017C00081F18337A1F1833509F05BC0D801CD9059
:1017D000DD908D016B2D70E056FC02C06FEF7FEF46
:1017E000C6010E94330D5C01689457F80AC00C5F73
:1017F0001F4FEFE3E983AA24A394B12C6401E8947A
:1018000057F853FE29C0342CA114B10451F53320EC
:1018100009F46DCFB70180E290E00E94490D3A943F
:10182000F6CFD8018C9189830E5F1F4FE4CFF8016A
:10183000C190D1908F016B2D70E056FC02C06FEF0C
:101840007FEFC6010E943E0D5C01D9CFB70180E257
:1018500090E00E94490D4A944A141B0409F0B0F725
:10186000D2CFF60157FC859157FE81916F01B701E8
:1018700090E00E94490D31103A94B1E0AB1AB108E2
:10188000C3CF843619F0893609F071C0F80157FECC
:1018900067C061917191819191918F01E52DEF76F2
:1018A000DE2E97FF09C090958095709561957F4FCA
:1018B0008F4F9F4F6894D7F82AE030E0A4010E9430
:1018C000790DC82EC818AC2C5D2CD6FE0CC0E8943F
:1018D00050F8CB1440F4D4FE05C0D2FC03C05D2DFB
:1018E0005E7E552EAB2C54FE93C0FE01EC0DF11D17
:1018F0008081803309F085C0652D697E562E752D57
:101900007870372E53FC93C050FE8DC0BC2CA414AD
:1019100010F4B40CBA1854FE90C0B70180E390E004
:101920000E94490D52FE07C088E751FC88E590E00F
:10193000B7010E94490DCB1408F48BC0CA94D12C76
:101940008FEFC81AD80AC80CD91CD6018E916D0128
:10195000B70190E00E94490D8C149D04B1F757CF58
:1019600061917191072E000C880B990B96CFD52CA5
:10197000E894D4F82AE0853729F1F52DF97FDF2E98
:101980008037A1F058F48835A1F08F36D1F0F701F7
:10199000868197812F96E2E10C94F30D8837B9F791
:1019A000D4FE02C06894D2F820E10CC06894D4F848
:1019B000F7CF54FE03C02F2F2660D22E20E132E055
:1019C00002C028E030E0F801D7FE15C041915191E6
:1019D000619171914C875D876E877F878F01A4012C
:1019E0006C857D858E859F850E94790DC82EC818CF
:1019F000E894D7F868CF81919191AC0170E060E0F4
:101A0000E9CF52FC02C0A3947ACFA394A39477CFDA
:101A1000852D867809F473CFF6CFB70180E290E088
:101A20000E94490DA394A414C0F3312C74CF342C1C
:101A30003A18A41408F46FCFF8CF852D867809F4EE
:101A40007ACF8BE251FE80E257FC8DE2B70190E045
:101A500070CFB70180E390E00E94490DBA946BCF3C
:101A60008FEF9FEF97CFFC01059061507040011000
:101A7000D8F7809590958E0F9F1F0895FC016150B7
:101A8000704001900110D8F7809590958E0F9F1FA0
:101A900008950F931F93CF93DF93182F092FEB0116
:101AA0008B8181FD09C01FEF0FEF812F902FDF91F8
:101AB000CF911F910F91089582FF14C02E813F8115
:101AC0008C819D81281739073CF4E881F981CF0189
:101AD00001969983888310838E819F8101969F83CD
:101AE0008E83E3CFE885F985812F0995892BA1F3B2
:101AF000DACFFA01AA27283051F1203181F1E89498
:101B00006F936E7F6E5F7F4F8F4F9F4FAF4FB1E0F0
:101B10003ED0B4E03CD0670F781F891F9A1FA11DEB
:101B2000680F791F8A1F911DA11D6A0F711D811DEC
:101B3000911DA11D20D009F468943F912AE0269FB1
:101B400011243019305D3193DEF6CF010895462F10
:101B50004770405D4193B3E00FD0C9F7F6CF462FF1
:101B60004F70405D4A3318F0495D31FD405241935A
:101B700002D0A9F7EACFB4E0A69597958795779517
:101B80006795BA95C9F700976105710508959B019E
:101B9000AC010A2E06945795479537952795BA9527
:101BA000C9F7620F731F841F951FA01D08952F9200
:101BB0003F924F925F926F927F928F929F92AF92DD
:101BC000BF92CF92DF92EF92FF920F931F93CF932A
:101BD000DF93CDB7DEB7CA1BDB0B0FB6F894DEBFC1
:101BE0000FBECDBF09942A88398848885F846E84E7
:101BF0007D848C849B84AA84B984C884DF80EE8031
:101C0000FD800C811B81AA81B981CE0FD11D0FB639
:101C1000F894DEBF0FBECDBFED010895F894FFCF5D
:101C200004623F6204181C7C1C1820703078182055
:101C300070387E06010001004C0045000100446937
:101C40006E6F736175722047616D650050726573C8
:101C500073205374617274210057202D204A554D12
:101C6000500053202D204455434B0053636F726541
:101C70003A2025640047414D45204F5645522100EA
:101C8000484947482053434F5245533A004C6F3A16
:101C9000203834005265693A203332004D61743A7D
:0C1CA00020313600596F753A2025640091
:00000001FF
